:100000000C9462000C948A000C948A000C948A0070
:100010000C948A000C948A000C948A000C948A0038
:100020000C948A000C948A000C948A000C948A0028
:100030000C948A000C948A000C948A000C948A0018
:100040000C9458020C948A000C949E010C94780134
:100050000C948A000C948A000C948A000C948A00F8
:100060000C948A000C948A000000000024002700F1
:100070002A0000000000250028002B0000000000DE
:1000800023002600290004040404040404040202DA
:100090000202020203030303030301020408102007
:1000A0004080010204081020010204081020000012
:1000B0000008000201000003040700000000000027
:1000C0000000320911241FBECFEFD8E0DEBFCDBF44
:1000D00011E0A0E0B1E0E4E7FBE102C005900D9281
:1000E000AC35B107D9F722E0ACE5B1E001C01D9213
:1000F000A633B207E1F710E0C2E6D0E004C02197D2
:10010000FE010E949D0BC136D107C9F70E941B0654
:100110000C94B80D0C940000089580E090E00895D0
:10012000FC01538D448D252F30E0842F90E0821BFD
:10013000930B541710F0CF96089501970895FC0182
:10014000918D828D981761F0828DDF01A80FB11D0E
:100150005D968C91928D9F5F9F73928F90E0089532
:100160008FEF9FEF0895FC01918D828D981731F0EC
:10017000828DE80FF11D858D90E008958FEF9FEF40
:100180000895FC01918D228D892F90E0805C9F4F16
:10019000821B91098F739927089585E691E00E944B
:1001A000C10021E0892B09F420E0822F0895FC0191
:1001B000848DDF01A80FB11DA35ABF4F2C91848DF0
:1001C00090E001968F739927848FA689B7892C9325
:1001D000A089B1898C9180648C93938D848D9813C0
:1001E00006C00288F389E02D80818F7D8083089589
:1001F000EF92FF920F931F93CF93DF93EC0181E077
:10020000888F9B8D8C8D981305C0E889F989808132
:1002100085FD24C0F62E0B8D10E00F5F1F4F0F736E
:100220001127E02E8C8DE8120CC00FB607FCFACF18
:10023000E889F989808185FFF5CFCE010E94D7003A
:10024000F1CF8B8DFE01E80FF11DE35AFF4FF082D5
:100250000B8FEA89FB898081806207C0EE89FF8964
:100260006083E889F98980818064808381E090E0FF
:10027000DF91CF911F910F91FF90EF900895CF9351
:10028000DF93EC01888D8823C9F0EA89FB8980819E
:1002900085FD05C0A889B9898C9186FD0FC00FB670
:1002A00007FCF5CF808185FFF2CFA889B9898C91B1
:1002B00085FFEDCFCE010E94D700E7CFDF91CF9130
:1002C000089580E090E0892B29F00E94CD008111F3
:1002D0000C9400000895FB01448155816081718177
:1002E00085E691E00E94A30288E191E00C9442032C
:1002F0001F920F920FB60F9211242F933F934F939B
:100300005F936F937F938F939F93AF93BF93EF937D
:10031000FF9385E691E00E94D700FF91EF91BF9196
:10032000AF919F918F917F916F915F914F913F918D
:100330002F910F900FBE0F901F9018951F920F9244
:100340000FB60F9211242F938F939F93EF93FF93E8
:10035000E0917501F09176018081E0917B01F0914F
:100360007C0182FD12C0908180917E018F5F8F732E
:1003700020917F01821751F0E0917E01F0E0EB596E
:10038000FE4F958F80937E0101C08081FF91EF9198
:100390009F918F912F910F900FBE0F901F901895E6
:1003A00090E0FC01E255FF4F3491FC01E656FF4F0F
:1003B0002491FC01EA57FF4FE491EE2309F43BC07E
:1003C000332339F1333091F038F43130A9F0323041
:1003D00001F584B58F7D12C0373091F03830A1F02F
:1003E0003430B9F4809180008F7D03C0809180000B
:1003F0008F77809380000DC084B58F7784BD09C04E
:100400008091B0008F7703C08091B0008F7D809382
:10041000B000F0E0EE0FFF1FEE58FF4FA591B49132
:100420008FB7F894EC91611103C020952E2301C081
:100430002E2B2C938FBF0895CF93DF9390E0FC0178
:10044000E656FF4F2491FC01EA57FF4F8491882321
:1004500061F190E0880F991FFC01E859FF4FC591A9
:10046000D491FC01EE58FF4FA591B491611109C0E0
:100470009FB7F8948881209582238883EC912E235E
:100480000BC0623061F49FB7F8943881822F809559
:1004900083238883EC912E2B2C939FBF06C08FB7AC
:1004A000F894E8812E2B28838FBFDF91CF91089598
:1004B0001F920F920FB60F9211242F933F938F9399
:1004C0009F93AF93BF938091610190916201A0913E
:1004D0006301B09164013091600123E0230F2D3757
:1004E00020F40196A11DB11D05C026E8230F029638
:1004F000A11DB11D20936001809361019093620161
:10050000A0936301B093640180915C0190915D01BF
:10051000A0915E01B0915F010196A11DB11D809374
:100520005C0190935D01A0935E01B0935F01BF9168
:10053000AF919F918F913F912F910F900FBE0F9090
:100540001F9018950895CF92DF92EF92FF920F932C
:100550001F93CF93DF936C017A018B01C0E0D0E051
:10056000CE15DF0589F0D8016D918D01D601ED9191
:10057000FC910190F081E02DC6010995892B11F4C1
:100580007E0102C02196ECCFC701DF91CF911F9170
:100590000F91FF90EF90DF90CF9008950E949A0DF9
:1005A000CF92DF92EF92FF926B017C01E091750197
:1005B000F091760182E08083C11481EED806E104D7
:1005C000F104B1F060E079E08DE390E0A7019601DD
:1005D0000E942F0BDA01C9010197A109B109B69553
:1005E000A795979587959C01211580E13807B8F06C
:1005F000E0917501F0917601108260E874E88EE177
:1006000090E0A70196010E942F0BDA01C901019722
:10061000A109B109B695A795979587959C01E09199
:100620007101F09172013083E0917301F0917401D6
:10063000208310927D01E0917901F0917A0186E0AA
:100640008083E0917701F0917801808180618083DF
:10065000E0917701F0917801808188608083E0915A
:100660007701F0917801808180688083E091770143
:10067000F091780180818F7D8083FF90EF90DF90F3
:10068000CF900895009769F0FC0101900020E9F7F0
:100690003197AF01481B590BBC0185E691E00C94E2
:1006A000A30280E090E008958F929F92AF92BF9254
:1006B0000F931F93CF93DF93CDB7DEB7A1970FB6FC
:1006C000F894DEBF0FBECDBF19A2423008F44AE055
:1006D0008E010F5D1F4F842E912CA12CB12CA501F2
:1006E00094010E942F0BE62FB901CA010150110994
:1006F000EA3014F4E05D01C0E95CD801EC93232BEF
:10070000242B252B61F7C8010E944203A1960FB646
:10071000F894DEBF0FBECDBFDF91CF911F910F9137
:10072000BF90AF909F908F900895CF92DF92EF92FD
:10073000FF92CF93DF936B017C01E0916501F09113
:1007400066010190F081E02D6DE285E691E009956A
:10075000EC0166277727CB016C197D098E099F096B
:100760004AE00E9454038C0F9D1FDF91CF91FF90B0
:10077000EF90DF90CF9008953F924F925F926F92EB
:100780007F928F929F92AF92BF92CF92DF92EF9221
:10079000FF920F931F93CF93DF9300D000D0CDB77C
:1007A000DEB77C018B0181E0E816F10449F450903A
:1007B0000E02C0901002809112029091130208C0A4
:1007C00050901402C0901602809118029091190264
:1007D0009C838B830130110549F081E00F3F9FEF2F
:1007E000190709F080E0D82E412C03C0D12C4424F5
:1007F00043944A01052E000CAA08BB082FEF30E0F5
:10080000DA010E94960B24E630E040E050E00E94BE
:10081000D90A39013B8061E0832D29833A830E9404
:100820001C0229813A816114710411F460E005C051
:100830008FEF6816710419F461E08B814BC0EB8176
:10084000FC81FF27E255FF4FE491E33001F148F4CA
:10085000E130C1F0E230B1F584B5806284BD28BDDD
:100860003BC0E730F9F0E83029F1E43059F58091E8
:100870008000806280938000C90190938B008093F8
:100880008A002AC084B5806884BD27BD25C08091B8
:100890008000806880938000C901909389008093D4
:1008A00088001AC08091B00080688093B0002093C7
:1008B000B30012C08091B00080628093B00020939A
:1008C000B4000AC090E86916710414F460E001C035
:1008D00061E0832D0E94D001642D852D0E94D001FE
:1008E0006D2D8C2D0E94D0018FE291E00E94420379
:1008F000B701FF0C880B990B97FF03C00E9495036B
:1009000003C04AE00E9454030F3F8FEF180719F00D
:100910000130110589F489E391E00E944203B80196
:10092000110F880B990B97FF03C00E94950308C015
:100930004AE00E94540304C082E491E00E94420312
:100940008DE491E00E944203B7FE05C0C501B401E9
:100950000E94950305C04AE0C501B4010E945403FA
:1009600088E191E00F900F900F900F90DF91CF9161
:100970001F910F91FF90EF90DF90CF90BF90AF90BD
:100980009F908F907F906F905F904F903F900C94CE
:100990004203FC0180819181009711F00C946D0954
:1009A00060E070E0CB0108950F931F93CF93DF9326
:1009B0008C01EB01FC01808191810097B1F068818D
:1009C00079816115710579F0428153812C813D81D6
:1009D0004217530740F00E94B10D8C819D81F801B0
:1009E0009583848313C00E94380C88819981F80113
:1009F000918380838A819B81938382838C819D8173
:100A000095838483198218821B821A821D821C821C
:100A1000DF91CF911F910F9108950F931F93CF9363
:100A2000DF93EC0188819981009729F02A813B812D
:100A30002617370788F48B016F5F7F4F0E94D00C19
:100A4000009761F0998388831B830A832C813D8101
:100A5000232B11F4FC01108281E001C080E0DF91C2
:100A6000CF911F910F910895CF93DF93EC0188816F
:100A70009981009711F00E94380C198218821D820A
:100A80001C821B821A82DF91CF910895EF92FF9210
:100A90000F931F93CF93DF93EC017B018A01BA017F
:100AA0000E940D05811104C0CE010E94340507C0CB
:100AB0001D830C83B701888199810E94B10DCE01FD
:100AC000DF91CF911F910F91FF90EF900895FC015E
:100AD000808191810C94380CFC0111821082138268
:100AE0001282158214826115710551F0FB0101908B
:100AF0000020E9F73197AF01461B570B0C944605D0
:100B00000895BF92CF92DF92EF92FF920F931F93BF
:100B1000CF93DF937C016B01EA018901241735072C
:100B200020F48D2FE901042F182F6AE171E0C7012D
:100B30000E946C05D60114968D919C911597C8174B
:100B4000D90748F58017910708F48C01D601ED917B
:100B5000FC911197E00FF11FB08010824D915C91D4
:100B6000BA016C0F7D1F6115710561F0FB010190E9
:100B70000020E9F73197AF01461B570BC7010E94D0
:100B8000460503C0C7010E943405D601ED91FC91D2
:100B9000E00FF11FB082C701DF91CF911F910F913C
:100BA000FF90EF90DF90CF90BF900895CF92DF92AB
:100BB000EF92FF920F931F93E82FF92F05C001507A
:100BC00011092109310961F1908196239417B9F334
:100BD00005C0015011092109310911F190819623B5
:100BE0009413F7CFC12CD12CE12CF12C0AC08FEF3C
:100BF000C81AD80AE80AF80A0C151D052E053F0583
:100C000079F080818623841791F36C2D7D2D8E2DB4
:100C10009F2D1F910F91FF90EF90DF90CF9008953F
:100C200060E070E080E090E01F910F91FF90EF9006
:100C3000DF90CF900895CF93DF93CDB7DEB7E497E1
:100C40000FB6F894DEBF0FBECDBF789484B5826036
:100C500084BD84B5816084BD85B5826085BD85B560
:100C6000816085BD80916E00816080936E001092DE
:100C70008100809181008260809381008091810059
:100C800081608093810080918000816080938000EA
:100C90008091B10084608093B1008091B000816048
:100CA0008093B00080917A00846080937A00809174
:100CB0007A00826080937A0080917A0081608093CC
:100CC0007A0080917A00806880937A001092C10047
:100CD00060E875E280E090E00E94D0020CE112E052
:100CE0008FEF809330021092310261E08CE00E941D
:100CF0001C0261E088E00E941C0261E08BE00E941F
:100D00001C0261E082E00E941C0261E084E00E941B
:100D10001C0261E085E00E941C028CE090E0909350
:100D20000F0280930E0288E090E09093110280936E
:100D300010028BE090E0909313028093120282E005
:100D400090E0909315028093140284E090E09093D9
:100D500017028093160285E090E090931902809329
:100D6000180210931B0200931A0261E087E00E94B0
:100D70001C0261E089E00E941C0260E08AE00E949F
:100D80001C0260E087E00E94D0012FB7F8948091A8
:100D9000610190916201A0916301B09164012FBF44
:100DA00027E030E0309303022093020229E030E094
:100DB00030930502209304022AE030E030930702CA
:100DC00020930602109309020093080280930A02FE
:100DD00090930B02A0930C02B0930D02CE010196EA
:100DE0007C0123E2C22ED12C85E691E00E94C10055
:100DF000181619060CF0E6C0809131028331A0F478
:100E000085E691E00E949F0080933002E0913102DC
:100E1000AE2FB0E0A45EBD4F8C93EF5FE093310244
:100E2000F0E0E45EFD4F108280913002833249F49D
:100E3000ECE1F2E0119222E0EF32F207D9F71092E2
:100E40003102E0911A02F0911B0284898D3509F07C
:100E5000CAC16BE171E0CE018B960E946C056BE11B
:100E600071E0CE0185960E946C056BE171E0CE01C8
:100E70004F960E946C056BE171E0CE0149960E948D
:100E80006C0560911A0270911B02CE0143960E947C
:100E90006C0522E030E041E050E0BE016D5E7F4F26
:100EA000C7010E948105B701CE018B960E94D40430
:100EB000C7010E94670526E030E043E050E0BE0134
:100EC0006D5E7F4FC7010E948105B701CE018596F7
:100ED0000E94D404C7010E94670528E030E047E083
:100EE00050E0BE016D5E7F4FC7010E948105B701D2
:100EF000CE014F960E94D404C7010E9467052CE0E2
:100F000030E049E050E0BE016D5E7F4FC7010E94B6
:100F10008105B701CE0149960E94D404C7010E9401
:100F20006705CE018B960E94C9045B0192E0A91669
:100F3000B10419F4AA24AA94BA2CCE0185960E9471
:100F4000C90469AB7AAB8BAB9CABCE014F960E94C8
:100F5000C9048B016230710511F40FEF1FEFCE0150
:100F600049960E94C9042B013C0149A95AA9B5011F
:100F700081E090E00E94BC03A201B80182E090E011
:100F80000E94BC03CE0143960E946705CE0149969C
:100F90000E946705CE014F960E946705CE01859697
:100FA0000E946705CE018B960E946705E0911A02A8
:100FB000F0911B02DF01CF0143961D92A817B907DC
:100FC000E1F7158A2FB7F894809161019091620141
:100FD000A0916301B09164012FBF40910A0250912A
:100FE0000B0260910C0270910D02841B950BA60BF5
:100FF000B70B893E9340A105B10508F4F1C02FB7A6
:10100000F8948091610190916201A0916301B09187
:1010100064012FBF80930A0290930B02A0930C02ED
:10102000B0930D0260E0809104020E94D001C601DD
:101030000197F1F761E0809104020E94D001C6019E
:101040000197F1F760E0809104020E94D001809145
:101050000602909107029927FC01E656FF4F649122
:10106000FC01EA57FF4FE491F0E0EE0FFF1FE45858
:10107000FF4F8591949100E412E42FE030E0462F79
:101080000E94D605611571058105910539F0DC01D5
:10109000CB010196A11DB11DBF7003C080E090E09F
:1010A000DC011C8A1B8A1E8A1D8A188E1F8ABC01BD
:1010B000990F880B990B0E94E00926E933E44BE075
:1010C0005DE30E941B0A20E030E040E05FE30E9405
:1010D0001B0A0E94600BDC01CB014AE0B7010E94B1
:1010E0009409F70101900020E9F73197AF014E19FB
:1010F0005F09B701CE0143960E9446056BE271E09D
:10110000C7010E946C058F89988DAB88BC880D81C2
:101110001E81A114B10409F49DC00097A1F0080F2D
:10112000191FB801C7010E940D05882309F492C058
:1011300029813A818D819E81B501820F931F0E9482
:10114000B10D1E830D830D811E810F5F1F4FB801EE
:10115000C7010E940D05882309F480C029813A81C6
:101160008D819E8162E271E0820F931F0E94B10D1A
:101170001E830D831A8E198E1C8E1B8E1E8E1D8E45
:1011800069817A816115710531F04D815E81CE01F1
:1011900049960E944605C7010E946705CE01439605
:1011A0000E9467051A8219821C821B821E821D8280
:1011B000698D7A8D6115710529F04D8D5E8DC701A0
:1011C0000E944605B70180910802909109020E9491
:1011D0006B01C7010E946705CE0149960E94670511
:1011E0000E94610101CE6091080270910902FB0129
:1011F0008489843209F0F8CDC7010E946C058D8185
:101200009E81892BB9F009811A816DE171E0C801D5
:101210000E94A80D892B11F460E008C064E271E01F
:10122000C8010E94A80D892B29F461E08091020277
:101230000E94D001E0910802F0910902DF01CF0184
:1012400043961D92A817B907E1F7158AC7010E94B6
:101250006705B8CEC7010E94340575CFC7010E944B
:10126000340588CFE5E6F1E01382128288EE93E040
:10127000A0E0B0E084839583A683B7838AE091E001
:101280009183808385EC90E09587848784EC90E05F
:101290009787868780EC90E0918B808B81EC90E043
:1012A000938B828B82EC90E0958B848B86EC90E024
:1012B000978B868B118E128E138E148E60E875E2DA
:1012C00080E090E00E94D00210920A0210920B027D
:1012D00010920C0210920D0208951F93FC019927A1
:1012E0008827BC01E89411911032E9F3193010F00D
:1012F0001E30C8F31B3251F01D3249F4689406C009
:101300000E949F09610F711D811D911D1191105344
:101310001A30B0F33EF490958095709561957F4FAB
:101320008F4F9F4F1F910895BB274A3031F4992367
:1013300022F4BDE2909581959F4F0C94B509592FE9
:10134000482F372F262F660F771F881F991F660F8C
:10135000771F881F991F620F731F841F951F660FC9
:10136000771F881F991F0895BB27FB015527AA27C0
:10137000880F991FAA1FA41710F0A41B8395505122
:10138000B9F7A05DAA3308F0A95DA193009779F79A
:10139000B111B1931192CB010C94CE09DC01FC0187
:1013A000672F71917723E1F7329704C07C916D9399
:1013B00070836291AE17BF07C8F30895E89409C01F
:1013C00097FB3EF490958095709561957F4F8F4F78
:1013D0009F4F9923A9F0F92F96E9BB279395F6958E
:1013E000879577956795B795F111F8CFFAF4BB0F0C
:1013F00011F460FF1BC06F5F7F4F8F4F9F4F16C070
:10140000882311F096E911C0772321F09EE8872FF9
:10141000762F05C0662371F096E8862F70E060E0B5
:101420002AF09A95660F771F881FDAF7880F96952E
:10143000879597F908950E942E0A0C949F0A0E949E
:10144000910A38F00E94980A20F0952311F00C942C
:10145000880A0C948E0A11240C94D30A0E94B00AB4
:1014600070F3959FC1F3950F50E0551F629FF001F7
:10147000729FBB27F00DB11D639FAA27F00DB11D10
:10148000AA1F649F6627B00DA11D661F829F222799
:10149000B00DA11D621F739FB00DA11D621F839F20
:1014A000A00D611D221F749F3327A00D611D231FF6
:1014B000849F600D211D822F762F6A2F11249F5744
:1014C00050409AF0F1F088234AF0EE0FFF1FBB1F47
:1014D000661F771F881F91505040A9F79E3F510506
:1014E00080F00C94880A0C94D30A5F3FE4F3983E92
:1014F000D4F3869577956795B795F795E7959F5FB0
:10150000C1F7FE2B880F911D9695879597F9089541
:1015100097F99F6780E870E060E008959FEF80ECA6
:10152000089500240A941616170618060906089549
:1015300000240A9412161306140605060895092EAF
:101540000394000C11F4882352F0BB0F40F4BF2B1E
:1015500011F460FF04C06F5F7F4F8F4F9F4F08955E
:1015600057FD9058440F551F59F05F3F71F0479554
:10157000880F97FB991F61F09F3F79F08795089539
:10158000121613061406551FF2CF4695F1DF08C058
:10159000161617061806991FF1CF86957105610575
:1015A00008940895E894BB2766277727CB0197F91D
:1015B0000895052E97FB1EF400940E94F00A57FD33
:1015C00007D00E942F0B07FC03D04EF40C94F00AB6
:1015D00050954095309521953F4F4F4F5F4F08955F
:1015E00090958095709561957F4F8F4F9F4F08958F
:1015F0002F923F924F925F926F927F928F929F9223
:10160000AF92BF92CF92DF92EF92FF920F931F9310
:10161000CF93DF93CDB7DEB7CA1BDB0B0FB6F894C1
:10162000DEBF0FBECDBF09942A88398848885F8401
:101630006E847D848C849B84AA84B984C884DF8072
:10164000EE80FD800C811B81AA81B981CE0FD11D56
:101650000FB6F894DEBF0FBECDBFED010895A1E235
:101660001A2EAA1BBB1BFD010DC0AA1FBB1FEE1F1C
:10167000FF1FA217B307E407F50720F0A21BB30B67
:10168000E40BF50B661F771F881F991F1A9469F7E3
:1016900060957095809590959B01AC01BD01CF013F
:1016A0000895A29FB001B39FC001A39F700D811D3B
:1016B0001124911DB29F700D811D1124911D08955B
:1016C0000E94670B6894B1110C94D30A08950E948C
:1016D000B80A88F09F5798F0B92F9927B751B0F002
:1016E000E1F0660F771F881F991F1AF0BA95C9F7A6
:1016F00014C0B13091F00E94D20AB1E008950C9468
:10170000D20A672F782F8827B85F39F0B93FCCF31A
:10171000869577956795B395D9F73EF49095809522
:10172000709561957F4F8F4F9F4F08950E94510B89
:10173000B7FF0895821B930B0895EE0FFF1F0590CE
:10174000F491E02D0994CF93DF938230910510F44A
:1017500082E090E0E0913402F091350220E030E048
:10176000C0E0D0E0309711F140815181481759070E
:10177000C0F04817590761F482819381209719F0CE
:101780009B838A832BC0909335028093340226C0BA
:101790002115310519F04217530718F49A01BE01BB
:1017A000DF01EF010280F381E02DDCCF211531054F
:1017B00009F1281B390B2430310590F412968D91D4
:1017C0009C9113976115710521F0FB01938382832E
:1017D00004C09093350280933402FD01329644C0D8
:1017E000FD01E20FF31F81939193225031092D9354
:1017F0003C933AC02091320230913302232B41F4C2
:101800002091020130910301309333022093320280
:1018100020910001309101012115310541F42DB7CE
:101820003EB74091040150910501241B350BE09116
:101830003202F0913302E217F307A0F42E1B3F0BA4
:101840002817390778F0AC014E5F5F4F2417350732
:1018500048F04E0F5F1F5093330240933202819342
:10186000919302C0E0E0F0E0CF01DF91CF910895C5
:101870000F931F93CF93DF93009709F48CC0FC0163
:1018800032971382128200913402109135020115B1
:10189000110581F420813181820F931F2091320242
:1018A000309133022817390779F5F0933302E0932A
:1018B000320271C0D80140E050E0AE17BF0750F4CB
:1018C00012962D913C911397AD012115310509F127
:1018D000D901F3CF9D01DA013383228360817181C5
:1018E000860F971F8217930769F4EC0128813981CD
:1018F000260F371F2E5F3F4F318320838A819B81C4
:1019000093838283452B29F4F0933502E0933402CC
:1019100042C01396FC93EE931297ED0149915991B1
:101920009E01240F351FE217F30771F48081918126
:10193000840F951F029611969C938E9382819381BA
:1019400013969C938E931297E0E0F0E0D8011296E4
:101950008D919C911397009719F0F8018C01F6CFA7
:101960008D919C9198012E5F3F4F820F931F209184
:101970003202309133022817390769F4309729F47D
:10198000109235021092340202C013821282109318
:10199000330200933202DF91CF911F910F9108958E
:1019A000A0E0B0E0E6EDFCE00C94FC0AEC0100974E
:1019B00021F4CB010E94A30BB8C0FC01E60FF71F76
:1019C0009C0122503109E217F30708F4ACC0D90199
:1019D0000D911C91119706171707B0F005301105EE
:1019E00008F49FC0C80104978617970708F499C0A8
:1019F00002501109061B170B019311936D937C93F1
:101A0000CF010E94380C8DC05B01A01AB10A4C01B5
:101A1000800E911EA0913402B091350240E050E05A
:101A2000E12CF12C109709F44AC0A815B905D1F59D
:101A30006D907C901197630182E0C80ED11CCA148E
:101A4000DB0480F1A3014A195B096A0182E0C80E38
:101A5000D11C1296BC9012971396AC91B5E0CB16A0
:101A6000D10440F0B282A38351834083D9016D93A6
:101A70007C930AC00E5F1F4FC301800F911FF901B5
:101A800091838083EB2DFA2FE114F10431F0D7011B
:101A90001396FC93EE93129744C0F0933502E093B3
:101AA00034023FC08D919C9111974817590708F453
:101AB000AC017D0112960D90BC91A02DB3CF809109
:101AC00032029091330288159905E1F446175707C1
:101AD000C8F48091000190910101009741F48DB705
:101AE0009EB74091040150910501841B950BE817A6
:101AF000F907C8F4F0933302E0933202F9017183DD
:101B000060830FC0CB010E94A30B7C01009759F0AA
:101B1000A801BE010E949F0DCE010E94380CC70192
:101B200004C0CE0102C080E090E0CDB7DEB7EEE0A9
:101B30000C94180B81E090E0F8940C94B80DFB0124
:101B4000DC0102C001900D9241505040D8F7089539
:101B5000FB01DC018D91019080190110D9F3990BE3
:101B60000895FB01DC0101900D920020E1F708953A
:041B7000F894FFCF17
:101B740000003602800000000000F800A30290007C
:101B84003F01C1009F00B3000D0A003000574152CD
:101B94004E3024005741524E312400444953004DE5
:101BA4006F74657572203A20002073656E73203A55
:101BB400200020212073746F702021200020707574
:0C1BC400697373616E6365203A200000B5
:107800000C94343C0C94513C0C94513C0C94513CE1
:107810000C94513C0C94513C0C94513C0C94513CB4
:107820000C94513C0C94513C0C94513C0C94513CA4
:107830000C94513C0C94513C0C94513C0C94513C94
:107840000C94513C0C94513C0C94513C0C94513C84
:107850000C94513C0C94513C0C94513C0C94513C74
:107860000C94513C0C94513C11241FBECFEFD8E036
:10787000DEBFCDBF11E0A0E0B1E0ECE9FFE702C060
:1078800005900D92A230B107D9F712E0A2E0B1E065
:1078900001C01D92AD30B107E1F70E942D3D0C945F
:1078A000CC3F0C94003C982F959595959595959582
:1078B000905D8F708A307CF0282F295A8091C0000B
:1078C00085FFFCCF9093C6008091C00085FFFCCF60
:1078D0002093C6000895282F205DF0CF982F809127
:1078E000C00085FFFCCF9093C6000895EF92FF92F1
:1078F0000F931F93EE24FF2487018091C00087FD22
:1079000017C00894E11CF11C011D111D81E4E8164B
:1079100082E4F8068FE0080780E0180770F3E09132
:107920000401F091050109958091C00087FFE9CF1E
:107930008091C6001F910F91FF90EF9008950E94D3
:10794000763C982F8091C00085FFFCCF9093C600B5
:1079500091362CF490330CF09053892F089597555D
:10796000892F08951F930E949F3C182F0E949F3CCF
:107970001295107F810F1F9108951F93182F882350
:1079800021F00E94763C1150E1F71F9108951F935A
:10799000182F0E94763C803249F0809103018F5F5E
:1079A000809303018530C1F01F9108958091C0003C
:1079B00085FFFCCF84E18093C6008091C00085FFE5
:1079C000FCCF1093C6008091C00085FFFCCF80E102
:1079D0008093C6001F910895E0910401F091050184
:1079E00009951F9108950E94763C803241F0809164
:1079F00003018F5F80930301853081F008958091AA
:107A0000C00085FFFCCF84E18093C6008091C00058
:107A100085FFFCCF80E18093C6000895E0910401CA
:107A2000F09105010995089540E951E08823A1F0FE
:107A30002D9A28EE33E0FA013197F1F721503040CA
:107A4000D1F72D9828EE33E0FA013197F1F7215064
:107A50003040D1F7815061F708953F924F925F9285
:107A60006F927F928F929F92AF92BF92CF92DF924E
:107A7000EF92FF920F931F93CF93DF93000080E16B
:107A80008093C4001092C50088E18093C10086E015
:107A90008093C2005098589A259A81E00E94143D24
:107AA00024E1F22E9EE1E92E85E9D82E0FE0C02ECA
:107AB00010E1B12EAA24A394B1E49B2EA6E58A2E50
:107AC000F2E57F2EE0E26E2E79E4572E63E5462E36
:107AD00050E5352E0E94763C8033B1F18133B9F107
:107AE000803409F46FC0813409F476C0823409F41B
:107AF00085C0853409F488C0803531F1823521F1A3
:107B0000813511F1853509F485C0863509F48DC0BC
:107B1000843609F496C0843709F403C1853709F423
:107B200072C1863709F466C0809103018F5F80932C
:107B30000301853079F6E0910401F0910501099582
:107B40000E94763C803351F60E94F33CC3CF0E94E2
:107B5000763C803249F78091C00085FFFCCFF092DF
:107B6000C6008091C00085FFFCCF9092C600809136
:107B7000C00085FFFCCF8092C6008091C00085FFC9
:107B8000FCCF7092C6008091C00085FFFCCF609250
:107B9000C6008091C00085FFFCCF5092C600809146
:107BA000C00085FFFCCF4092C6008091C00085FFD9
:107BB000FCCF3092C6008091C00085FFFCCFB09210
:107BC000C60088CF0E94763C863808F4BDCF0E945C
:107BD000763C0E94F33C7ECF0E94763C803809F4CC
:107BE0009CC0813809F40BC1823809F43CC1883942
:107BF00009F48FC080E00E94C73C6CCF84E10E94F2
:107C0000BD3C0E94F33C66CF85E00E94BD3C0E94D3
:107C1000F33C60CF0E94763C809306010E94763C44
:107C2000809307010E94F33C55CF0E94763C80333D
:107C300009F41DC183E00E94BD3C80E00E94C73C66
:107C400049CF0E94763C809309020E94763C809343
:107C5000080280910C028E7F80930C020E94763C79
:107C6000853409F415C18091080290910902892B8D
:107C700089F000E010E00E94763CF801E85FFE4FDA
:107C800080830F5F1F4F80910802909109020817AF
:107C9000190788F30E94763C803209F045CF809125
:107CA0000C0280FF01C16091060170910701660F0F
:107CB000771F7093070160930601A0910802B091AD
:107CC00009021097C9F0E8E0F1E09B01AD014E0F09
:107CD0005F1FF999FECF32BD21BD819180BDFA9A17
:107CE000F99A2F5F3F4FE417F50799F76A0F7B1F4B
:107CF00070930701609306018091C00085FFFCCF5F
:107D0000F092C6008091C00085FFFCCFB092C60003
:107D1000E1CE83E00E94C73CDDCE82E00E94C73CFA
:107D2000D9CE0E94763C809309020E94763C8093D3
:107D300008028091060190910701880F991F909386
:107D40000701809306010E94763C853409F4A6C0A1
:107D500080910C028E7F80930C020E94763C8032D0
:107D600009F0B8CE8091C00085FFFCCFF092C6002C
:107D7000609108027091090261157105B9F140E046
:107D800050E080910C02A82FA170B82FB27011C0E2
:107D9000BB2309F45CC0E0910601F0910701319624
:107DA000F0930701E09306014F5F5F4F46175707B7
:107DB000E8F4AA2369F3F999FECF209106013091E6
:107DC000070132BD21BDF89A90B58091C00085FFB2
:107DD000FCCF9093C6002F5F3F4F30930701209355
:107DE00006014F5F5F4F4617570718F38091C00099
:107DF00085FDE5CE8091C00085FFF8CFE0CE81E023
:107E00000E94C73C67CE0E94763C803209F08CCE3F
:107E10008091C00085FFFCCFF092C6008091C00029
:107E200085FFFCCFE092C6008091C00085FFFCCFAB
:107E3000D092C6008091C00085FFFCCFC092C600E2
:107E40008091C00085FFFCCFB092C60043CEE09188
:107E50000601F091070194918091C00085FFFCCF4D
:107E60009093C6009CCF80E10E94C73C33CE0E9415
:107E7000763C0E94763C182F0E94763C112309F430
:107E800083C0113009F484C08FE00E94C73C22CE29
:107E900080910C02816080930C02E5CE80910C02EF
:107EA000816080930C0259CF809107018823880F4D
:107EB000880B8A2180930B02809106019091070123
:107EC000880F991F90930701809306018091080203
:107ED00080FF09C080910802909109020196909359
:107EE000090280930802F894F999FECF1127E091D6
:107EF0000601F0910701C8E0D1E08091080290915D
:107F00000902103091F40091570001700130D9F34B
:107F100003E000935700E89500915700017001308D
:107F2000D9F301E100935700E89509901990009169
:107F3000570001700130D9F301E000935700E89534
:107F40001395103498F011270091570001700130FB
:107F5000D9F305E000935700E895009157000170B0
:107F60000130D9F301E100935700E895329602976A
:107F700009F0C7CF103011F00296E5CF112480919F
:107F8000C00085FFB9CEBCCE8EE10E94C73CA2CD19
:0C7F900085E90E94C73C9ECDF894FFCF0D
:027F9C00800063
:040000030000780081
:00000001FF